{
  "contractName": "Passport",
  "abi": [
    {
      "inputs": [],
      "payable": false,
      "stateMutability": "nonpayable",
      "type": "constructor"
    },
    {
      "anonymous": false,
      "inputs": [
        {
          "indexed": true,
          "internalType": "bytes32",
          "name": "_hashedpass",
          "type": "bytes32"
        }
      ],
      "name": "hashedEvent",
      "type": "event"
    },
    {
      "constant": true,
      "inputs": [],
      "name": "adminCount",
      "outputs": [
        {
          "internalType": "uint256",
          "name": "",
          "type": "uint256"
        }
      ],
      "payable": false,
      "stateMutability": "view",
      "type": "function"
    },
    {
      "constant": true,
      "inputs": [
        {
          "internalType": "uint256",
          "name": "",
          "type": "uint256"
        }
      ],
      "name": "adminIdToAddress",
      "outputs": [
        {
          "internalType": "address",
          "name": "",
          "type": "address"
        }
      ],
      "payable": false,
      "stateMutability": "view",
      "type": "function"
    },
    {
      "constant": true,
      "inputs": [
        {
          "internalType": "address",
          "name": "",
          "type": "address"
        }
      ],
      "name": "adminsAddress",
      "outputs": [
        {
          "internalType": "bool",
          "name": "",
          "type": "bool"
        }
      ],
      "payable": false,
      "stateMutability": "view",
      "type": "function"
    },
    {
      "constant": true,
      "inputs": [
        {
          "internalType": "uint256",
          "name": "",
          "type": "uint256"
        }
      ],
      "name": "adminsId",
      "outputs": [
        {
          "internalType": "uint256",
          "name": "id",
          "type": "uint256"
        },
        {
          "internalType": "string",
          "name": "username",
          "type": "string"
        },
        {
          "internalType": "uint256",
          "name": "pwd",
          "type": "uint256"
        }
      ],
      "payable": false,
      "stateMutability": "view",
      "type": "function"
    },
    {
      "constant": true,
      "inputs": [
        {
          "internalType": "bytes32",
          "name": "",
          "type": "bytes32"
        }
      ],
      "name": "expired",
      "outputs": [
        {
          "internalType": "bool",
          "name": "",
          "type": "bool"
        }
      ],
      "payable": false,
      "stateMutability": "view",
      "type": "function"
    },
    {
      "constant": true,
      "inputs": [],
      "name": "expiredCount",
      "outputs": [
        {
          "internalType": "uint256",
          "name": "",
          "type": "uint256"
        }
      ],
      "payable": false,
      "stateMutability": "view",
      "type": "function"
    },
    {
      "constant": true,
      "inputs": [
        {
          "internalType": "bytes32",
          "name": "",
          "type": "bytes32"
        }
      ],
      "name": "expires",
      "outputs": [
        {
          "internalType": "uint256",
          "name": "",
          "type": "uint256"
        }
      ],
      "payable": false,
      "stateMutability": "view",
      "type": "function"
    },
    {
      "constant": true,
      "inputs": [
        {
          "internalType": "uint256",
          "name": "",
          "type": "uint256"
        }
      ],
      "name": "passhashes",
      "outputs": [
        {
          "internalType": "bytes32",
          "name": "hashOfPass",
          "type": "bytes32"
        }
      ],
      "payable": false,
      "stateMutability": "view",
      "type": "function"
    },
    {
      "constant": true,
      "inputs": [
        {
          "internalType": "bytes32",
          "name": "",
          "type": "bytes32"
        }
      ],
      "name": "passhashes2",
      "outputs": [
        {
          "internalType": "bool",
          "name": "",
          "type": "bool"
        }
      ],
      "payable": false,
      "stateMutability": "view",
      "type": "function"
    },
    {
      "constant": true,
      "inputs": [],
      "name": "passpCount",
      "outputs": [
        {
          "internalType": "uint256",
          "name": "",
          "type": "uint256"
        }
      ],
      "payable": false,
      "stateMutability": "view",
      "type": "function"
    },
    {
      "constant": false,
      "inputs": [
        {
          "internalType": "address",
          "name": "_newAdminAddress",
          "type": "address"
        },
        {
          "internalType": "string",
          "name": "_username",
          "type": "string"
        },
        {
          "internalType": "uint256",
          "name": "_pwd",
          "type": "uint256"
        }
      ],
      "name": "addDefaultAdmin",
      "outputs": [],
      "payable": false,
      "stateMutability": "nonpayable",
      "type": "function"
    },
    {
      "constant": false,
      "inputs": [
        {
          "internalType": "address",
          "name": "_newAdminAddress",
          "type": "address"
        },
        {
          "internalType": "string",
          "name": "_username",
          "type": "string"
        },
        {
          "internalType": "uint256",
          "name": "_pwd",
          "type": "uint256"
        }
      ],
      "name": "addAdmin",
      "outputs": [],
      "payable": false,
      "stateMutability": "nonpayable",
      "type": "function"
    },
    {
      "constant": false,
      "inputs": [
        {
          "internalType": "string",
          "name": "_PassNumber",
          "type": "string"
        },
        {
          "internalType": "string",
          "name": "_name",
          "type": "string"
        },
        {
          "internalType": "uint256",
          "name": "_expireDate",
          "type": "uint256"
        }
      ],
      "name": "addPassport",
      "outputs": [],
      "payable": false,
      "stateMutability": "nonpayable",
      "type": "function"
    },
    {
      "constant": false,
      "inputs": [
        {
          "internalType": "string",
          "name": "_PassNumber",
          "type": "string"
        },
        {
          "internalType": "string",
          "name": "_name",
          "type": "string"
        },
        {
          "internalType": "uint256",
          "name": "_expireDate",
          "type": "uint256"
        },
        {
          "internalType": "uint256",
          "name": "_currentDate",
          "type": "uint256"
        }
      ],
      "name": "controllPassport",
      "outputs": [],
      "payable": false,
      "stateMutability": "nonpayable",
      "type": "function"
    },
    {
      "constant": false,
      "inputs": [],
      "name": "isAccountAdmin",
      "outputs": [
        {
          "internalType": "bool",
          "name": "",
          "type": "bool"
        }
      ],
      "payable": false,
      "stateMutability": "nonpayable",
      "type": "function"
    },
    {
      "constant": true,
      "inputs": [
        {
          "internalType": "string",
          "name": "_PassNumber",
          "type": "string"
        },
        {
          "internalType": "string",
          "name": "_name",
          "type": "string"
        },
        {
          "internalType": "uint256",
          "name": "_expireDate",
          "type": "uint256"
        }
      ],
      "name": "hash",
      "outputs": [
        {
          "internalType": "bytes32",
          "name": "",
          "type": "bytes32"
        }
      ],
      "payable": false,
      "stateMutability": "pure",
      "type": "function"
    }
  ],
  "bytecode": "0x60806040526000600755600060085560006009553480156200002057600080fd5b506200007e735e6a57c7aaff1ae1fb78cfa6036e569070c8602a6040518060400160405280600581526020017f41686d6574000000000000000000000000000000000000000000000000000000815250607b620000e160201b60201c565b620000db73f604eb5610a9cd54d96355126177e8bed0bb8dab6040518060400160405280600581526020017f5975737566000000000000000000000000000000000000000000000000000000815250607b620000e160201b60201c565b620002bb565b60076000815480929190600101919050555060405180606001604052806007548152602001838152602001828152506004600060075481526020019081526020016000206000820151816000015560208201518160010190805190602001906200014d9291906200020c565b50604082015181600201559050506001600560008573ffffffffffffffffffffffffffffffffffffffff1673ffffffffffffffffffffffffffffffffffffffff16815260200190815260200160002060006101000a81548160ff0219169083151502179055508260066000600754815260200190815260200160002060006101000a81548173ffffffffffffffffffffffffffffffffffffffff021916908373ffffffffffffffffffffffffffffffffffffffff160217905550505050565b828054600181600116156101000203166002900490600052602060002090601f016020900481019282601f106200024f57805160ff191683800117855562000280565b8280016001018555821562000280579182015b828111156200027f57825182559160200191906001019062000262565b5b5090506200028f919062000293565b5090565b620002b891905b80821115620002b45760008160009055506001016200029a565b5090565b90565b61143680620002cb6000396000f3fe608060405234801561001057600080fd5b50600436106101005760003560e01c8063892c3b9911610097578063dd561d8e11610066578063dd561d8e14610783578063e4722cd3146107c9578063ec1c3c3014610939578063eda70f7e146109ee57610100565b8063892c3b991461061c578063980350e61461063a578063a27380031461065c578063d076bba71461069e57610100565b806344a60bbb116100d357806344a60bbb146102bc57806364ff7198146102fe57806369f4846c146104645780637bd58bfb146104c057610100565b806308b73f2c146101055780632b7832b3146101ea57806330cc35971461020857806333bfe71e1461024e575b600080fd5b6101e86004803603606081101561011b57600080fd5b81019080803573ffffffffffffffffffffffffffffffffffffffff1690602001909291908035906020019064010000000081111561015857600080fd5b82018360208201111561016a57600080fd5b8035906020019184600183028401116401000000008311171561018c57600080fd5b91908080601f016020809104026020016040519081016040528093929190818152602001838380828437600081840152601f19601f82011690508083019250505050505050919291929080359060200190929190505050610a0c565b005b6101f2610b8b565b6040518082815260200191505060405180910390f35b6102346004803603602081101561021e57600080fd5b8101908080359060200190929190505050610b91565b604051808215151515815260200191505060405180910390f35b61027a6004803603602081101561026457600080fd5b8101908080359060200190929190505050610bb1565b604051808273ffffffffffffffffffffffffffffffffffffffff1673ffffffffffffffffffffffffffffffffffffffff16815260200191505060405180910390f35b6102e8600480360360208110156102d257600080fd5b8101908080359060200190929190505050610be4565b6040518082815260200191505060405180910390f35b6104626004803603608081101561031457600080fd5b810190808035906020019064010000000081111561033157600080fd5b82018360208201111561034357600080fd5b8035906020019184600183028401116401000000008311171561036557600080fd5b91908080601f016020809104026020016040519081016040528093929190818152602001838380828437600081840152601f19601f820116905080830192505050505050509192919290803590602001906401000000008111156103c857600080fd5b8201836020820111156103da57600080fd5b803590602001918460018302840111640100000000831117156103fc57600080fd5b91908080601f016020809104026020016040519081016040528093929190818152602001838380828437600081840152601f19601f8201169050808301925050505050505091929192908035906020019092919080359060200190929190505050610bfc565b005b6104a66004803603602081101561047a57600080fd5b81019080803573ffffffffffffffffffffffffffffffffffffffff169060200190929190505050610dfa565b604051808215151515815260200191505060405180910390f35b61061a600480360360608110156104d657600080fd5b81019080803590602001906401000000008111156104f357600080fd5b82018360208201111561050557600080fd5b8035906020019184600183028401116401000000008311171561052757600080fd5b91908080601f016020809104026020016040519081016040528093929190818152602001838380828437600081840152601f19601f8201169050808301925050505050505091929192908035906020019064010000000081111561058a57600080fd5b82018360208201111561059c57600080fd5b803590602001918460018302840111640100000000831117156105be57600080fd5b91908080601f016020809104026020016040519081016040528093929190818152602001838380828437600081840152601f19601f82011690508083019250505050505050919291929080359060200190929190505050610e1a565b005b610624610f63565b6040518082815260200191505060405180910390f35b610642610f69565b604051808215151515815260200191505060405180910390f35b6106886004803603602081101561067257600080fd5b8101908080359060200190929190505050610fd5565b6040518082815260200191505060405180910390f35b610781600480360360608110156106b457600080fd5b81019080803573ffffffffffffffffffffffffffffffffffffffff169060200190929190803590602001906401000000008111156106f157600080fd5b82018360208201111561070357600080fd5b8035906020019184600183028401116401000000008311171561072557600080fd5b91908080601f016020809104026020016040519081016040528093929190818152602001838380828437600081840152601f19601f82011690508083019250505050505050919291929080359060200190929190505050610ff3565b005b6107af6004803603602081101561079957600080fd5b810190808035906020019092919050505061111c565b604051808215151515815260200191505060405180910390f35b610923600480360360608110156107df57600080fd5b81019080803590602001906401000000008111156107fc57600080fd5b82018360208201111561080e57600080fd5b8035906020019184600183028401116401000000008311171561083057600080fd5b91908080601f016020809104026020016040519081016040528093929190818152602001838380828437600081840152601f19601f8201169050808301925050505050505091929192908035906020019064010000000081111561089357600080fd5b8201836020820111156108a557600080fd5b803590602001918460018302840111640100000000831117156108c757600080fd5b91908080601f016020809104026020016040519081016040528093929190818152602001838380828437600081840152601f19601f8201169050808301925050505050505091929192908035906020019092919050505061113c565b6040518082815260200191505060405180910390f35b6109656004803603602081101561094f57600080fd5b8101908080359060200190929190505050611214565b6040518084815260200180602001838152602001828103825284818151815260200191508051906020019080838360005b838110156109b1578082015181840152602081019050610996565b50505050905090810190601f1680156109de5780820380516001836020036101000a031916815260200191505b5094505050505060405180910390f35b6109f66112d6565b6040518082815260200191505060405180910390f35b600560003373ffffffffffffffffffffffffffffffffffffffff1673ffffffffffffffffffffffffffffffffffffffff16815260200190815260200160002060009054906101000a900460ff16610a6257600080fd5b6007600081548092919060010191905055506040518060600160405280600754815260200183815260200182815250600460006007548152602001908152602001600020600082015181600001556020820151816001019080519060200190610acc9291906112dc565b50604082015181600201559050506001600560008573ffffffffffffffffffffffffffffffffffffffff1673ffffffffffffffffffffffffffffffffffffffff16815260200190815260200160002060006101000a81548160ff0219169083151502179055508260066000600754815260200190815260200160002060006101000a81548173ffffffffffffffffffffffffffffffffffffffff021916908373ffffffffffffffffffffffffffffffffffffffff160217905550505050565b60075481565b60016020528060005260406000206000915054906101000a900460ff1681565b60066020528060005260406000206000915054906101000a900473ffffffffffffffffffffffffffffffffffffffff1681565b60006020528060005260406000206000915090505481565b6000610c0985858561113c565b90506003600082815260200190815260200160002060009054906101000a900460ff16610c9e576040517f08c379a00000000000000000000000000000000000000000000000000000000081526004018080602001828103825260208152602001807f546869732070617373706f727420646f6573206e65766572206578697374656481525060200191505060405180910390fd5b6001600082815260200190815260200160002060009054906101000a900460ff1615610d32576040517f08c379a000000000000000000000000000000000000000000000000000000000815260040180806020018281038252601d8152602001807f546869732070617373706f727420616c7265616479206578706972656400000081525060200191505060405180910390fd5b818311610da7576040517f08c379a00000000000000000000000000000000000000000000000000000000081526004018080602001828103825260158152602001807f546869732070617373706f72742065787069726564000000000000000000000081525060200191505060405180910390fd5b6040518060400160405280601981526020017f546869732050617373706f727420697320616c6c6f7765642e00000000000000815250600a9080519060200190610df292919061135c565b505050505050565b60056020528060005260406000206000915054906101000a900460ff1681565b600560003373ffffffffffffffffffffffffffffffffffffffff1673ffffffffffffffffffffffffffffffffffffffff16815260200190815260200160002060009054906101000a900460ff16610e7057600080fd5b6000610e7d84848461113c565b90506003600082815260200190815260200160002060009054906101000a900460ff1615610eaa57600080fd5b600860008154809291906001019190505550816000808381526020019081526020016000208190555060016003600083815260200190815260200160002060006101000a81548160ff02191690831515021790555060405180602001604052808281525060026000600854815260200190815260200160002060008201518160000155905050807fc519f651a0362775650c10d75776603fab1c73ec2d7fb433ecd7aebe910ab88560405160405180910390a250505050565b60085481565b600060011515600560003373ffffffffffffffffffffffffffffffffffffffff1673ffffffffffffffffffffffffffffffffffffffff16815260200190815260200160002060009054906101000a900460ff1615151415610fcd5760019050610fd2565b600090505b90565b60026020528060005260406000206000915090508060000154905081565b600760008154809291906001019190505550604051806060016040528060075481526020018381526020018281525060046000600754815260200190815260200160002060008201518160000155602082015181600101908051906020019061105d9291906112dc565b50604082015181600201559050506001600560008573ffffffffffffffffffffffffffffffffffffffff1673ffffffffffffffffffffffffffffffffffffffff16815260200190815260200160002060006101000a81548160ff0219169083151502179055508260066000600754815260200190815260200160002060006101000a81548173ffffffffffffffffffffffffffffffffffffffff021916908373ffffffffffffffffffffffffffffffffffffffff160217905550505050565b60036020528060005260406000206000915054906101000a900460ff1681565b60008383836040516020018084805190602001908083835b602083106111775780518252602082019150602081019050602083039250611154565b6001836020036101000a03801982511681845116808217855250505050505090500183805190602001908083835b602083106111c857805182526020820191506020810190506020830392506111a5565b6001836020036101000a03801982511681845116808217855250505050505090500182815260200193505050506040516020818303038152906040528051906020012090509392505050565b6004602052806000526040600020600091509050806000015490806001018054600181600116156101000203166002900480601f0160208091040260200160405190810160405280929190818152602001828054600181600116156101000203166002900480156112c65780601f1061129b576101008083540402835291602001916112c6565b820191906000526020600020905b8154815290600101906020018083116112a957829003601f168201915b5050505050908060020154905083565b60095481565b828054600181600116156101000203166002900490600052602060002090601f016020900481019282601f1061131d57805160ff191683800117855561134b565b8280016001018555821561134b579182015b8281111561134a57825182559160200191906001019061132f565b5b50905061135891906113dc565b5090565b828054600181600116156101000203166002900490600052602060002090601f016020900481019282601f1061139d57805160ff19168380011785556113cb565b828001600101855582156113cb579182015b828111156113ca5782518255916020019190600101906113af565b5b5090506113d891906113dc565b5090565b6113fe91905b808211156113fa5760008160009055506001016113e2565b5090565b9056fea265627a7a72315820a6eadc3b3ce31ba9376b08e0c6b6f9d8fe756cf25e7ffba89188a00f168ff52264736f6c63430005100032",
  "source": "// SPDX-License-Identifier: MIT\npragma solidity >=0.5.16;\n\ncontract Passport {\n    \n    // Admin\n    \n    struct Admin{\n        uint id;\n        string username;\n        uint pwd;\n    }\n    \n    // PassWord\n    \n    struct Pass{\n        string PassNumber;\n        string Name;\n        uint expireDate;\n    }\n\n    // Passports hash\n    struct PassHash{\n        bytes32 hashOfPass;\n    }\n\n\n\n    // Store expired Passports\n    mapping(bytes32 => uint) public expires; // TODO - It is unnecessary i think\n    mapping(bytes32 => bool) public expired; \n\n    // Store Passports\n    mapping(uint => PassHash) public passhashes; // TODO - rename this. It holds ids of passhashes\n    mapping(bytes32 => bool) public passhashes2; // TODO - rename this. It holds the passhashes\n    \n\n    // Store Admins\n    // TODO - check if mappings can reducible\n    mapping(uint => Admin) public adminsId;\n    mapping(address => bool) public adminsAddress;\n    mapping(uint => address) public adminIdToAddress;\n\n    // TODO - check if there is unnecessary ones\n    uint public adminCount      = 0;\n    uint public passpCount      = 0;\n    uint public expiredCount    = 0;\n\n    // TODO - removeable\n    string returnMessage; \n    bool returnBool;\n\n    // Default admins are created\n    constructor () public {\n\n        addDefaultAdmin(0x5e6a57C7aAff1aE1fb78Cfa6036E569070c8602a, \"Ahmet\", 123);\n        addDefaultAdmin(0xf604eB5610a9Cd54d96355126177E8BEd0Bb8DAb, \"Yusuf\", 123);\n    }\n\n    // write hash of passport on blockchain\n    event hashedEvent (bytes32 indexed _hashedpass);\n    \n    // Default admin creator function\n    function addDefaultAdmin(address _newAdminAddress, string memory _username, uint _pwd) public {\n        // require that only adminsId can create new admin.\n        adminCount++;\n\n        adminsId[adminCount] = Admin(adminCount, _username, _pwd);\n        adminsAddress[_newAdminAddress] = true;\n        adminIdToAddress[adminCount] = _newAdminAddress;\n    }\n\n    // Adds admin (requires an admin to do this)\n    function addAdmin(address _newAdminAddress, string memory _username, uint _pwd) public {\n        // require that only adminsId can create new admin.\n        require(adminsAddress[msg.sender]);\n\n        adminCount++;\n\n        adminsId[adminCount] = Admin(adminCount, _username, _pwd);\n        adminsAddress[_newAdminAddress] = true;\n        adminIdToAddress[adminCount] = _newAdminAddress;\n    }\n\n    /* TODO - addPassport ile admin yeni bir passport oluşturup hashi kişiye özel \n        oluşturulan bir hesaba atancak \n    */\n\n    // Adds passports hash on blockchain (requires an admin to do this, requires that there is no exact \n    // same hash already on blockchain)\n    function addPassport(string memory _PassNumber, string memory _name, uint _expireDate) public {\n        require(adminsAddress[msg.sender]);\n        bytes32 hashedPass = hash(_PassNumber, _name, _expireDate);\n\n        require(!passhashes2[hashedPass]);\n        passpCount++;\n\n        expires[hashedPass] = _expireDate;\n\n        // IDEA - Hash yeni oluşturulacak bir adrese tanımlanabilir.\n        passhashes2[hashedPass] = true;\n        passhashes[passpCount] = PassHash(hashedPass);\n        emit hashedEvent(hashedPass);\n        \n    }\n\n    // TODO - controlPass ile Passaport bilgileri kişiden alınıp hashi kişiye verilen adres ile doğrulanacak\n    // Controls if there is a hash on blockchain which is exactly same as hash of given parameters \n    // requires that the passport not expired\n    function controllPassport(string memory _PassNumber, string memory _name, uint _expireDate, uint _currentDate) public {\n        //require(admins2[msg.sender]); // IDEA - Bence admin yerine herkes kontrol edebilmeli\n        bytes32 hashedPass = hash(_PassNumber, _name, _expireDate);\n\n        require(passhashes2[hashedPass], \"This passport does never existed\");\n        \n        require(!expired[hashedPass], \"This passport already expired\");\n\n        require(_expireDate > _currentDate, \"This passport expired\");\n\n        returnMessage = \"This Passport is allowed.\";\n    }\n    \n    // TODO - This function not used yet. But it will be!\n    function isAccountAdmin() public returns (bool) {\n        if (adminsAddress[msg.sender] == true){ return true; }\n        else {return false;}\n    }\n    \n    \n    \n    \n    // Hash\n    function hash(string memory _PassNumber, string memory _name, uint _expireDate)\n        public pure returns (bytes32)\n    {\n        return keccak256(abi.encodePacked(_PassNumber, _name, _expireDate));\n    }\n\n\n\n}\n",
  "sourcePath": "/home/orta/Documents/Passport/contracts/Passport.sol",
  "compiler": {
    "name": "solc",
    "version": "0.5.16+commit.9c3226ce.Emscripten.clang"
  },
  "schemaVersion": "3.4.1",
  "updatedAt": "2021-06-30T12:10:03.093Z",
  "networkType": "ethereum",
  "devdoc": {
    "methods": {}
  },
  "userdoc": {
    "methods": {}
  }
}